{
  "transactions": [
    {
      "hash": "0x94a678fb529163fbf745a8b156234570389a8076be74b64ccee310527ca2fa90",
      "transactionType": "CREATE",
      "contractName": "MockSLP",
      "contractAddress": "0x857d7CcFcef3A7FF8245f57Daeb042440Fd513e8",
      "function": null,
      "arguments": [],
      "transaction": {
        "type": "0x02",
        "from": "0x968d0cd7343f711216817e617d3f92a23dc91c07",
        "gas": "0x134086",
        "value": "0x0",
        "data": "0x608060405234801561001057600080fd5b506040518060400160405280601281526020017129b6b7b7ba34102637bb32902837ba34b7b760711b815250604051806040016040528060038152602001620534c560ec1b8152508160039081610067919061011d565b506004610074828261011d565b5050506101dc565b634e487b7160e01b600052604160045260246000fd5b600181811c908216806100a657607f821691505b6020821081036100c657634e487b7160e01b600052602260045260246000fd5b50919050565b601f821115610118576000816000526020600020601f850160051c810160208610156100f55750805b601f850160051c820191505b8181101561011457828155600101610101565b5050505b505050565b81516001600160401b038111156101365761013661007c565b61014a816101448454610092565b846100cc565b602080601f83116001811461017f57600084156101675750858301515b600019600386901b1c1916600185901b178555610114565b600085815260208120601f198616915b828110156101ae5788860151825594840194600190910190840161018f565b50858210156101cc5787850151600019600388901b60f8161c191681555b5050505050600190811b01905550565b61098a806101eb6000396000f3fe608060405234801561001057600080fd5b50600436106100b45760003560e01c806340c10f191161007157806340c10f191461014157806370a082311461015657806395d89b411461017f578063a457c2d714610187578063a9059cbb1461019a578063dd62ed3e146101ad57600080fd5b806306fdde03146100b9578063095ea7b3146100d757806318160ddd146100fa57806323b872dd1461010c578063313ce5671461011f578063395093511461012e575b600080fd5b6100c16101c0565b6040516100ce91906107d3565b60405180910390f35b6100ea6100e536600461083e565b610252565b60405190151581526020016100ce565b6002545b6040519081526020016100ce565b6100ea61011a366004610868565b61026c565b604051600081526020016100ce565b6100ea61013c36600461083e565b610290565b61015461014f36600461083e565b6102b2565b005b6100fe6101643660046108a4565b6001600160a01b031660009081526020819052604090205490565b6100c16102c0565b6100ea61019536600461083e565b6102cf565b6100ea6101a836600461083e565b61034f565b6100fe6101bb3660046108c6565b61035d565b6060600380546101cf906108f9565b80601f01602080910402602001604051908101604052809291908181526020018280546101fb906108f9565b80156102485780601f1061021d57610100808354040283529160200191610248565b820191906000526020600020905b81548152906001019060200180831161022b57829003601f168201915b5050505050905090565b600033610260818585610388565b60019150505b92915050565b60003361027a8582856104ac565b610285858585610526565b506001949350505050565b6000336102608185856102a3838361035d565b6102ad9190610933565b610388565b6102bc82826106f4565b5050565b6060600480546101cf906108f9565b600033816102dd828661035d565b9050838110156103425760405162461bcd60e51b815260206004820152602560248201527f45524332303a2064656372656173656420616c6c6f77616e63652062656c6f77604482015264207a65726f60d81b60648201526084015b60405180910390fd5b6102858286868403610388565b600033610260818585610526565b6001600160a01b03918216600090815260016020908152604080832093909416825291909152205490565b6001600160a01b0383166103ea5760405162461bcd60e51b8152602060048201526024808201527f45524332303a20617070726f76652066726f6d20746865207a65726f206164646044820152637265737360e01b6064820152608401610339565b6001600160a01b03821661044b5760405162461bcd60e51b815260206004820152602260248201527f45524332303a20617070726f766520746f20746865207a65726f206164647265604482015261737360f01b6064820152608401610339565b6001600160a01b0383811660008181526001602090815260408083209487168084529482529182902085905590518481527f8c5be1e5ebec7d5bd14f71427d1e84f3dd0314c0f7b2291e5b200ac8c7c3b925910160405180910390a3505050565b60006104b8848461035d565b9050600019811461052057818110156105135760405162461bcd60e51b815260206004820152601d60248201527f45524332303a20696e73756666696369656e7420616c6c6f77616e63650000006044820152606401610339565b6105208484848403610388565b50505050565b6001600160a01b03831661058a5760405162461bcd60e51b815260206004820152602560248201527f45524332303a207472616e736665722066726f6d20746865207a65726f206164604482015264647265737360d81b6064820152608401610339565b6001600160a01b0382166105ec5760405162461bcd60e51b815260206004820152602360248201527f45524332303a207472616e7366657220746f20746865207a65726f206164647260448201526265737360e81b6064820152608401610339565b6001600160a01b038316600090815260208190526040902054818110156106645760405162461bcd60e51b815260206004820152602660248201527f45524332303a207472616e7366657220616d6f756e7420657863656564732062604482015265616c616e636560d01b6064820152608401610339565b6001600160a01b0380851660009081526020819052604080822085850390559185168152908120805484929061069b908490610933565b92505081905550826001600160a01b0316846001600160a01b03167fddf252ad1be2c89b69c2b068fc378daa952ba7f163c4a11628f55a4df523b3ef846040516106e791815260200190565b60405180910390a3610520565b6001600160a01b03821661074a5760405162461bcd60e51b815260206004820152601f60248201527f45524332303a206d696e7420746f20746865207a65726f2061646472657373006044820152606401610339565b806002600082825461075c9190610933565b90915550506001600160a01b03821660009081526020819052604081208054839290610789908490610933565b90915550506040518181526001600160a01b038316906000907fddf252ad1be2c89b69c2b068fc378daa952ba7f163c4a11628f55a4df523b3ef9060200160405180910390a35050565b60006020808352835180602085015260005b81811015610801578581018301518582016040015282016107e5565b506000604082860101526040601f19601f8301168501019250505092915050565b80356001600160a01b038116811461083957600080fd5b919050565b6000806040838503121561085157600080fd5b61085a83610822565b946020939093013593505050565b60008060006060848603121561087d57600080fd5b61088684610822565b925061089460208501610822565b9150604084013590509250925092565b6000602082840312156108b657600080fd5b6108bf82610822565b9392505050565b600080604083850312156108d957600080fd5b6108e283610822565b91506108f060208401610822565b90509250929050565b600181811c9082168061090d57607f821691505b60208210810361092d57634e487b7160e01b600052602260045260246000fd5b50919050565b8082018082111561026657634e487b7160e01b600052601160045260246000fdfea2646970667358221220aa700d2a84d76b663b0e6e64e2262db97093227329c49f33043ce4f78e870c6c64736f6c634300081700330000000000000000000000000000000000000000000000000000000000000040000000000000000000000000000000000000000000000000000000000000006000000000000000000000000000000000000000000000000000000000000000000000000000000000000000000000000000000000000000000000000000000000",
        "nonce": "0xf",
        "accessList": []
      },
      "additionalContracts": [],
      "isFixedGasLimit": false
    },
    {
      "hash": "0x1256d02096be9d780ff6d63e25399854a965a59afd4f5a4b6c605b9f09c68805",
      "transactionType": "CALL",
      "contractName": "TransparentUpgradeableProxyV2",
      "contractAddress": "0x06855f31dF1d3D25cE486CF09dB49bDa535D2a9e",
      "function": "functionDelegateCall(bytes)",
      "arguments": [
        "0xdff525e1000000000000000000000000000000000000000000000000000000000000008000000000000000000000000000000000000000000000000000000000000000c0000000000000000000000000000000000000000000000000000000000000010000000000000000000000000000000000000000000000000000000000000001400000000000000000000000000000000000000000000000000000000000000001000000000000000000000000857d7ccfcef3a7ff8245f57daeb042440fd513e8000000000000000000000000000000000000000000000000000000000000000100000000000000000000000082f5483623d636bc3deba8ae67e1751b6cf2bad200000000000000000000000000000000000000000000000000000000000000010000000000000000000000000000000000000000000000000000000000000000000000000000000000000000000000000000000000000000000000000000008000000000000000000000000000000000000000000000000000000000000000c000000000000000000000000000000000000000000000000000000000000001000000000000000000000000000000000000000000000000000000000000000140000000000000000000000000000000000000000000000000000000000000000100000000000000000000000000000000000000000000000000000000000249f0000000000000000000000000000000000000000000000000000000000000000100000000000000000000000000000000000000000000000000000000000138800000000000000000000000000000000000000000000000000000000000000001000000000000000000000000000000000000000000000000000000000000000a00000000000000000000000000000000000000000000000000000000000000010000000000000000000000000000000000000000000000000000000000030d40"
      ],
      "transaction": {
        "type": "0x02",
        "from": "0x968d0cd7343f711216817e617d3f92a23dc91c07",
        "to": "0x06855f31df1d3d25ce486cf09db49bda535d2a9e",
        "gas": "0x53b54",
        "value": "0x0",
        "data": "0x4bb5274a000000000000000000000000000000000000000000000000000000000000002000000000000000000000000000000000000000000000000000000000000002c4dff525e1000000000000000000000000000000000000000000000000000000000000008000000000000000000000000000000000000000000000000000000000000000c0000000000000000000000000000000000000000000000000000000000000010000000000000000000000000000000000000000000000000000000000000001400000000000000000000000000000000000000000000000000000000000000001000000000000000000000000857d7ccfcef3a7ff8245f57daeb042440fd513e8000000000000000000000000000000000000000000000000000000000000000100000000000000000000000082f5483623d636bc3deba8ae67e1751b6cf2bad200000000000000000000000000000000000000000000000000000000000000010000000000000000000000000000000000000000000000000000000000000000000000000000000000000000000000000000000000000000000000000000008000000000000000000000000000000000000000000000000000000000000000c000000000000000000000000000000000000000000000000000000000000001000000000000000000000000000000000000000000000000000000000000000140000000000000000000000000000000000000000000000000000000000000000100000000000000000000000000000000000000000000000000000000000249f0000000000000000000000000000000000000000000000000000000000000000100000000000000000000000000000000000000000000000000000000000138800000000000000000000000000000000000000000000000000000000000000001000000000000000000000000000000000000000000000000000000000000000a00000000000000000000000000000000000000000000000000000000000000010000000000000000000000000000000000000000000000000000000000030d4000000000000000000000000000000000000000000000000000000000",
        "nonce": "0x10",
        "accessList": []
      },
      "additionalContracts": [],
      "isFixedGasLimit": false
    },
    {
      "hash": "0x842b22a3446d90c67b9f41d11a5ac087f354e1dfb2ef18d3739a28f960060747",
      "transactionType": "CALL",
      "contractName": "src/mocks/token/MockSLP.sol:MockSLP",
      "contractAddress": "0x857d7CcFcef3A7FF8245f57Daeb042440Fd513e8",
      "function": "mint(address,uint256)",
      "arguments": [
        "0x06855f31dF1d3D25cE486CF09dB49bDa535D2a9e",
        "50000000"
      ],
      "transaction": {
        "type": "0x02",
        "from": "0x968d0cd7343f711216817e617d3f92a23dc91c07",
        "to": "0x857d7ccfcef3a7ff8245f57daeb042440fd513e8",
        "gas": "0x221a4",
        "value": "0x0",
        "data": "0x40c10f1900000000000000000000000006855f31df1d3d25ce486cf09db49bda535d2a9e0000000000000000000000000000000000000000000000000000000002faf080",
        "nonce": "0x11",
        "accessList": []
      },
      "additionalContracts": [],
      "isFixedGasLimit": false
    },
    {
      "hash": "0x6073589ab06f05737ef7984ab356dafe17d0c0837553d4216598ba62f6d3155c",
      "transactionType": "CALL",
      "contractName": "src/mocks/token/MockSLP.sol:MockSLP",
      "contractAddress": "0x857d7CcFcef3A7FF8245f57Daeb042440Fd513e8",
      "function": "mint(address,uint256)",
      "arguments": [
        "0xC65C6BEA96666f150BEF9b936630f6355BfFCC06",
        "100000"
      ],
      "transaction": {
        "type": "0x02",
        "from": "0x968d0cd7343f711216817e617d3f92a23dc91c07",
        "to": "0x857d7ccfcef3a7ff8245f57daeb042440fd513e8",
        "gas": "0x1bdcc",
        "value": "0x0",
        "data": "0x40c10f19000000000000000000000000c65c6bea96666f150bef9b936630f6355bffcc0600000000000000000000000000000000000000000000000000000000000186a0",
        "nonce": "0x12",
        "accessList": []
      },
      "additionalContracts": [],
      "isFixedGasLimit": false
    }
  ],
  "receipts": [
    {
      "transactionHash": "0x94a678fb529163fbf745a8b156234570389a8076be74b64ccee310527ca2fa90",
      "transactionIndex": "0x9",
      "blockHash": "0x48795a8cd694d5e9b89b511a0bc02a98e532194eec6078982d0e2e3561d52602",
      "blockNumber": "0x566003",
      "from": "0x968D0Cd7343f711216817E617d3f92a23dC91c07",
      "to": null,
      "cumulativeGasUsed": "0x160c06",
      "gasUsed": "0x9ab2b",
      "contractAddress": "0x857d7CcFcef3A7FF8245f57Daeb042440Fd513e8",
      "logs": [],
      "status": "0x1",
      "logsBloom": "0x00000000000000000000000000000000000000000000000000000000000000000000000000000000000000000000000000000000000000000000000000000000000000000000000000000000000000000000000000000000000000000000000000000000000000000000000000000000000000000000000000000000000000000000000000000000000000000000000000000000000000000000000000000000000000000000000000000000000000000000000000000000000000000000000000000000000000000000000000000000000000000000000000000000000000000000000000000000000000000000000000000000000000000000000000000000",
      "type": "0x2",
      "effectiveGasPrice": "0xe72db85f"
    },
    {
      "transactionHash": "0x1256d02096be9d780ff6d63e25399854a965a59afd4f5a4b6c605b9f09c68805",
      "transactionIndex": "0xa",
      "blockHash": "0x48795a8cd694d5e9b89b511a0bc02a98e532194eec6078982d0e2e3561d52602",
      "blockNumber": "0x566003",
      "from": "0x968D0Cd7343f711216817E617d3f92a23dC91c07",
      "to": "0x06855f31dF1d3D25cE486CF09dB49bDa535D2a9e",
      "cumulativeGasUsed": "0x188e8c",
      "gasUsed": "0x28286",
      "contractAddress": null,
      "logs": [
        {
          "address": "0x06855f31dF1d3D25cE486CF09dB49bDa535D2a9e",
          "topics": [
            "0xa4f03cc9c0e0aeb5b71b4ec800702753f65748c2cf3064695ba8e8b46be70444"
          ],
          "data": "0x000000000000000000000000000000000000000000000000000000000000006000000000000000000000000000000000000000000000000000000000000000a000000000000000000000000000000000000000000000000000000000000000e00000000000000000000000000000000000000000000000000000000000000001000000000000000000000000857d7ccfcef3a7ff8245f57daeb042440fd513e8000000000000000000000000000000000000000000000000000000000000000100000000000000000000000082f5483623d636bc3deba8ae67e1751b6cf2bad200000000000000000000000000000000000000000000000000000000000000010000000000000000000000000000000000000000000000000000000000000000",
          "blockHash": "0x48795a8cd694d5e9b89b511a0bc02a98e532194eec6078982d0e2e3561d52602",
          "blockNumber": "0x566003",
          "transactionHash": "0x1256d02096be9d780ff6d63e25399854a965a59afd4f5a4b6c605b9f09c68805",
          "transactionIndex": "0xa",
          "logIndex": "0x11",
          "removed": false
        },
        {
          "address": "0x06855f31dF1d3D25cE486CF09dB49bDa535D2a9e",
          "topics": [
            "0x80bc635c452ae67f12f9b6f12ad4daa6dbbc04eeb9ebb87d354ce10c0e210dc0"
          ],
          "data": "0x000000000000000000000000000000000000000000000000000000000000004000000000000000000000000000000000000000000000000000000000000000800000000000000000000000000000000000000000000000000000000000000001000000000000000000000000857d7ccfcef3a7ff8245f57daeb042440fd513e8000000000000000000000000000000000000000000000000000000000000000100000000000000000000000000000000000000000000000000000000000249f0",
          "blockHash": "0x48795a8cd694d5e9b89b511a0bc02a98e532194eec6078982d0e2e3561d52602",
          "blockNumber": "0x566003",
          "transactionHash": "0x1256d02096be9d780ff6d63e25399854a965a59afd4f5a4b6c605b9f09c68805",
          "transactionIndex": "0xa",
          "logIndex": "0x12",
          "removed": false
        },
        {
          "address": "0x06855f31dF1d3D25cE486CF09dB49bDa535D2a9e",
          "topics": [
            "0x64557254143204d91ba2d95acb9fda1e5fea55f77efd028685765bc1e94dd4b5"
          ],
          "data": "0x000000000000000000000000000000000000000000000000000000000000004000000000000000000000000000000000000000000000000000000000000000800000000000000000000000000000000000000000000000000000000000000001000000000000000000000000857d7ccfcef3a7ff8245f57daeb042440fd513e800000000000000000000000000000000000000000000000000000000000000010000000000000000000000000000000000000000000000000000000000013880",
          "blockHash": "0x48795a8cd694d5e9b89b511a0bc02a98e532194eec6078982d0e2e3561d52602",
          "blockNumber": "0x566003",
          "transactionHash": "0x1256d02096be9d780ff6d63e25399854a965a59afd4f5a4b6c605b9f09c68805",
          "transactionIndex": "0xa",
          "logIndex": "0x13",
          "removed": false
        },
        {
          "address": "0x06855f31dF1d3D25cE486CF09dB49bDa535D2a9e",
          "topics": [
            "0xb05f5de88ae0294ebb6f67c5af2fcbbd593cc6bdfe543e2869794a4c8ce3ea50"
          ],
          "data": "0x000000000000000000000000000000000000000000000000000000000000004000000000000000000000000000000000000000000000000000000000000000800000000000000000000000000000000000000000000000000000000000000001000000000000000000000000857d7ccfcef3a7ff8245f57daeb042440fd513e80000000000000000000000000000000000000000000000000000000000000001000000000000000000000000000000000000000000000000000000000000000a",
          "blockHash": "0x48795a8cd694d5e9b89b511a0bc02a98e532194eec6078982d0e2e3561d52602",
          "blockNumber": "0x566003",
          "transactionHash": "0x1256d02096be9d780ff6d63e25399854a965a59afd4f5a4b6c605b9f09c68805",
          "transactionIndex": "0xa",
          "logIndex": "0x14",
          "removed": false
        },
        {
          "address": "0x06855f31dF1d3D25cE486CF09dB49bDa535D2a9e",
          "topics": [
            "0xb5d2963614d72181b4df1f993d45b83edf42fa19710f0204217ba1b3e183bb73"
          ],
          "data": "0x000000000000000000000000000000000000000000000000000000000000004000000000000000000000000000000000000000000000000000000000000000800000000000000000000000000000000000000000000000000000000000000001000000000000000000000000857d7ccfcef3a7ff8245f57daeb042440fd513e800000000000000000000000000000000000000000000000000000000000000010000000000000000000000000000000000000000000000000000000000030d40",
          "blockHash": "0x48795a8cd694d5e9b89b511a0bc02a98e532194eec6078982d0e2e3561d52602",
          "blockNumber": "0x566003",
          "transactionHash": "0x1256d02096be9d780ff6d63e25399854a965a59afd4f5a4b6c605b9f09c68805",
          "transactionIndex": "0xa",
          "logIndex": "0x15",
          "removed": false
        }
      ],
      "status": "0x1",
      "logsBloom": "0x00000000008200000000000000000000000000008000000002000000000000000000000000000000000000000200000000000000000000000000000000000000800000000000000000000000000000000000000000000000000000000000000000000000000000000000000000000000000001000000000000000000000000000000000000000040000000000000000020000000000000000000000000000001000000000000000000000000000000000400000000000008000000000000000000000000000020000000000000000000000000000060000002000000000000008000100000000000000000000000000000000000000000000000000000000000",
      "type": "0x2",
      "effectiveGasPrice": "0xe72db85f"
    },
    {
      "transactionHash": "0x842b22a3446d90c67b9f41d11a5ac087f354e1dfb2ef18d3739a28f960060747",
      "transactionIndex": "0xb",
      "blockHash": "0x48795a8cd694d5e9b89b511a0bc02a98e532194eec6078982d0e2e3561d52602",
      "blockNumber": "0x566003",
      "from": "0x968D0Cd7343f711216817E617d3f92a23dC91c07",
      "to": "0x857d7CcFcef3A7FF8245f57Daeb042440Fd513e8",
      "cumulativeGasUsed": "0x19997a",
      "gasUsed": "0x10aee",
      "contractAddress": null,
      "logs": [
        {
          "address": "0x857d7CcFcef3A7FF8245f57Daeb042440Fd513e8",
          "topics": [
            "0xddf252ad1be2c89b69c2b068fc378daa952ba7f163c4a11628f55a4df523b3ef",
            "0x0000000000000000000000000000000000000000000000000000000000000000",
            "0x00000000000000000000000006855f31df1d3d25ce486cf09db49bda535d2a9e"
          ],
          "data": "0x0000000000000000000000000000000000000000000000000000000002faf080",
          "blockHash": "0x48795a8cd694d5e9b89b511a0bc02a98e532194eec6078982d0e2e3561d52602",
          "blockNumber": "0x566003",
          "transactionHash": "0x842b22a3446d90c67b9f41d11a5ac087f354e1dfb2ef18d3739a28f960060747",
          "transactionIndex": "0xb",
          "logIndex": "0x16",
          "removed": false
        }
      ],
      "status": "0x1",
      "logsBloom": "0x00000000000000000000000000000002000000000000000000000000000000000000000000000000000000000000000000000000000000100000000000000000000000000000000000000008000000000002000000000000040000000000000000000000020000000000000000000800000000000000000000000010000000000000000000000000000000020000000000000000000000000000000000000000000000000800000000000000000000000000000000000000000000000000000000000002000000000000000000000000000000000000000000000000000020000000000000000000000000000000000000000000000000000000000000000000",
      "type": "0x2",
      "effectiveGasPrice": "0xe72db85f"
    },
    {
      "transactionHash": "0x6073589ab06f05737ef7984ab356dafe17d0c0837553d4216598ba62f6d3155c",
      "transactionIndex": "0xc",
      "blockHash": "0x48795a8cd694d5e9b89b511a0bc02a98e532194eec6078982d0e2e3561d52602",
      "blockNumber": "0x566003",
      "from": "0x968D0Cd7343f711216817E617d3f92a23dC91c07",
      "to": "0x857d7CcFcef3A7FF8245f57Daeb042440Fd513e8",
      "cumulativeGasUsed": "0x1a6190",
      "gasUsed": "0xc816",
      "contractAddress": null,
      "logs": [
        {
          "address": "0x857d7CcFcef3A7FF8245f57Daeb042440Fd513e8",
          "topics": [
            "0xddf252ad1be2c89b69c2b068fc378daa952ba7f163c4a11628f55a4df523b3ef",
            "0x0000000000000000000000000000000000000000000000000000000000000000",
            "0x000000000000000000000000c65c6bea96666f150bef9b936630f6355bffcc06"
          ],
          "data": "0x00000000000000000000000000000000000000000000000000000000000186a0",
          "blockHash": "0x48795a8cd694d5e9b89b511a0bc02a98e532194eec6078982d0e2e3561d52602",
          "blockNumber": "0x566003",
          "transactionHash": "0x6073589ab06f05737ef7984ab356dafe17d0c0837553d4216598ba62f6d3155c",
          "transactionIndex": "0xc",
          "logIndex": "0x17",
          "removed": false
        }
      ],
      "status": "0x1",
      "logsBloom": "0x00000000000000000000000000000002000000000000000000000000000000000000000000000000000000000000000000000000000000100000000000000000000000000000000000000008000000000000000000000000040000000000000000000000020000000000000000000800000000000000000000000010000000000000000000000000000000000000000000000000000000000000200000000000000000000000000000000000000000000000000000000000000000000000000000000002000000000000000000000000000000000000040000000000000020000000000000004000000000000000000000000000000000000000000000000000",
      "type": "0x2",
      "effectiveGasPrice": "0xe72db85f"
    }
  ],
  "libraries": [],
  "pending": [],
  "returns": {},
  "timestamp": 1712659191,
  "chain": 11155111,
  "multi": false,
  "commit": "9876e3e"
}